{"abi":[{"type":"constructor","inputs":[{"name":"name_","type":"string","internalType":"string"},{"name":"symbol_","type":"string","internalType":"string"},{"name":"decimals_","type":"uint8","internalType":"uint8"},{"name":"maxTotalSupplyERC721_","type":"uint256","internalType":"uint256"},{"name":"initialOwner_","type":"address","internalType":"address"},{"name":"initialMintRecipient_","type":"address","internalType":"address"}],"stateMutability":"nonpayable"},{"type":"function","name":"_transferERC721","inputs":[{"name":"from","type":"address","internalType":"address"},{"name":"to","type":"address","internalType":"address"},{"name":"id","type":"uint256","internalType":"uint256"}],"outputs":[],"stateMutability":"nonpayable"},{"type":"function","name":"airdropIsOpen","inputs":[],"outputs":[{"name":"","type":"bool","internalType":"bool"}],"stateMutability":"view"},{"type":"function","name":"airdropMerkleRoot","inputs":[],"outputs":[{"name":"","type":"bytes32","internalType":"bytes32"}],"stateMutability":"view"},{"type":"function","name":"airdropMint","inputs":[{"name":"proof_","type":"bytes32[]","internalType":"bytes32[]"},{"name":"value_","type":"uint256","internalType":"uint256"}],"outputs":[],"stateMutability":"nonpayable"},{"type":"function","name":"allowance","inputs":[{"name":"","type":"address","internalType":"address"},{"name":"","type":"address","internalType":"address"}],"outputs":[{"name":"","type":"uint256","internalType":"uint256"}],"stateMutability":"view"},{"type":"function","name":"approve","inputs":[{"name":"spender","type":"address","internalType":"address"},{"name":"valueOrId","type":"uint256","internalType":"uint256"}],"outputs":[{"name":"","type":"bool","internalType":"bool"}],"stateMutability":"nonpayable"},{"type":"function","name":"balanceOf","inputs":[{"name":"","type":"address","internalType":"address"}],"outputs":[{"name":"","type":"uint256","internalType":"uint256"}],"stateMutability":"view"},{"type":"function","name":"decimals","inputs":[],"outputs":[{"name":"","type":"uint8","internalType":"uint8"}],"stateMutability":"view"},{"type":"function","name":"erc20BalanceOf","inputs":[{"name":"owner_","type":"address","internalType":"address"}],"outputs":[{"name":"","type":"uint256","internalType":"uint256"}],"stateMutability":"view"},{"type":"function","name":"erc721BalanceOf","inputs":[{"name":"owner_","type":"address","internalType":"address"}],"outputs":[{"name":"","type":"uint256","internalType":"uint256"}],"stateMutability":"view"},{"type":"function","name":"getApproved","inputs":[{"name":"","type":"uint256","internalType":"uint256"}],"outputs":[{"name":"","type":"address","internalType":"address"}],"stateMutability":"view"},{"type":"function","name":"hasClaimedAirdrop","inputs":[{"name":"","type":"address","internalType":"address"}],"outputs":[{"name":"","type":"bool","internalType":"bool"}],"stateMutability":"view"},{"type":"function","name":"isApprovedForAll","inputs":[{"name":"","type":"address","internalType":"address"},{"name":"","type":"address","internalType":"address"}],"outputs":[{"name":"","type":"bool","internalType":"bool"}],"stateMutability":"view"},{"type":"function","name":"maxTotalSupplyERC20","inputs":[],"outputs":[{"name":"","type":"uint256","internalType":"uint256"}],"stateMutability":"view"},{"type":"function","name":"maxTotalSupplyERC721","inputs":[],"outputs":[{"name":"","type":"uint256","internalType":"uint256"}],"stateMutability":"view"},{"type":"function","name":"minted","inputs":[],"outputs":[{"name":"","type":"uint256","internalType":"uint256"}],"stateMutability":"view"},{"type":"function","name":"name","inputs":[],"outputs":[{"name":"","type":"string","internalType":"string"}],"stateMutability":"view"},{"type":"function","name":"owner","inputs":[],"outputs":[{"name":"","type":"address","internalType":"address"}],"stateMutability":"view"},{"type":"function","name":"ownerOf","inputs":[{"name":"id","type":"uint256","internalType":"uint256"}],"outputs":[{"name":"nftOwner","type":"address","internalType":"address"}],"stateMutability":"view"},{"type":"function","name":"renounceOwnership","inputs":[],"outputs":[],"stateMutability":"nonpayable"},{"type":"function","name":"safeTransferFrom","inputs":[{"name":"from","type":"address","internalType":"address"},{"name":"to","type":"address","internalType":"address"},{"name":"id","type":"uint256","internalType":"uint256"}],"outputs":[],"stateMutability":"nonpayable"},{"type":"function","name":"safeTransferFrom","inputs":[{"name":"from","type":"address","internalType":"address"},{"name":"to","type":"address","internalType":"address"},{"name":"id","type":"uint256","internalType":"uint256"},{"name":"data","type":"bytes","internalType":"bytes"}],"outputs":[],"stateMutability":"nonpayable"},{"type":"function","name":"setAirdropMerkleRoot","inputs":[{"name":"airdropMerkleRoot_","type":"bytes32","internalType":"bytes32"}],"outputs":[],"stateMutability":"nonpayable"},{"type":"function","name":"setApprovalForAll","inputs":[{"name":"operator","type":"address","internalType":"address"},{"name":"approved","type":"bool","internalType":"bool"}],"outputs":[],"stateMutability":"nonpayable"},{"type":"function","name":"setWhitelist","inputs":[{"name":"account","type":"address","internalType":"address"},{"name":"value","type":"bool","internalType":"bool"}],"outputs":[],"stateMutability":"nonpayable"},{"type":"function","name":"symbol","inputs":[],"outputs":[{"name":"","type":"string","internalType":"string"}],"stateMutability":"view"},{"type":"function","name":"toggleAirdropIsOpen","inputs":[],"outputs":[],"stateMutability":"nonpayable"},{"type":"function","name":"tokenURI","inputs":[{"name":"id","type":"uint256","internalType":"uint256"}],"outputs":[{"name":"","type":"string","internalType":"string"}],"stateMutability":"pure"},{"type":"function","name":"totalSupply","inputs":[],"outputs":[{"name":"","type":"uint256","internalType":"uint256"}],"stateMutability":"view"},{"type":"function","name":"transfer","inputs":[{"name":"to","type":"address","internalType":"address"},{"name":"value","type":"uint256","internalType":"uint256"}],"outputs":[{"name":"","type":"bool","internalType":"bool"}],"stateMutability":"nonpayable"},{"type":"function","name":"transferFrom","inputs":[{"name":"from","type":"address","internalType":"address"},{"name":"to","type":"address","internalType":"address"},{"name":"valueOrId","type":"uint256","internalType":"uint256"}],"outputs":[],"stateMutability":"nonpayable"},{"type":"function","name":"transferOwnership","inputs":[{"name":"newOwner","type":"address","internalType":"address"}],"outputs":[],"stateMutability":"nonpayable"},{"type":"function","name":"units","inputs":[],"outputs":[{"name":"","type":"uint256","internalType":"uint256"}],"stateMutability":"view"},{"type":"function","name":"verifyProof","inputs":[{"name":"proof_","type":"bytes32[]","internalType":"bytes32[]"},{"name":"claimer_","type":"address","internalType":"address"},{"name":"value_","type":"uint256","internalType":"uint256"}],"outputs":[{"name":"","type":"bool","internalType":"bool"}],"stateMutability":"view"},{"type":"function","name":"whitelist","inputs":[{"name":"","type":"address","internalType":"address"}],"outputs":[{"name":"","type":"bool","internalType":"bool"}],"stateMutability":"view"},{"type":"event","name":"Approval","inputs":[{"name":"owner","type":"address","indexed":true,"internalType":"address"},{"name":"spender","type":"address","indexed":true,"internalType":"address"},{"name":"valueOrId","type":"uint256","indexed":false,"internalType":"uint256"}],"anonymous":false},{"type":"event","name":"ApprovalForAll","inputs":[{"name":"owner","type":"address","indexed":true,"internalType":"address"},{"name":"operator","type":"address","indexed":true,"internalType":"address"},{"name":"approved","type":"bool","indexed":false,"internalType":"bool"}],"anonymous":false},{"type":"event","name":"ERC20Approval","inputs":[{"name":"owner","type":"address","indexed":false,"internalType":"address"},{"name":"spender","type":"address","indexed":false,"internalType":"address"},{"name":"value","type":"uint256","indexed":false,"internalType":"uint256"}],"anonymous":false},{"type":"event","name":"ERC20Transfer","inputs":[{"name":"from","type":"address","indexed":true,"internalType":"address"},{"name":"to","type":"address","indexed":true,"internalType":"address"},{"name":"amount","type":"uint256","indexed":false,"internalType":"uint256"}],"anonymous":false},{"type":"event","name":"ERC721Approval","inputs":[{"name":"owner","type":"address","indexed":true,"internalType":"address"},{"name":"spender","type":"address","indexed":true,"internalType":"address"},{"name":"id","type":"uint256","indexed":true,"internalType":"uint256"}],"anonymous":false},{"type":"event","name":"ERC721Transfer","inputs":[{"name":"from","type":"address","indexed":true,"internalType":"address"},{"name":"to","type":"address","indexed":true,"internalType":"address"},{"name":"id","type":"uint256","indexed":true,"internalType":"uint256"}],"anonymous":false},{"type":"event","name":"OwnershipTransferred","inputs":[{"name":"previousOwner","type":"address","indexed":true,"internalType":"address"},{"name":"newOwner","type":"address","indexed":true,"internalType":"address"}],"anonymous":false},{"type":"event","name":"Transfer","inputs":[{"name":"from","type":"address","indexed":true,"internalType":"address"},{"name":"to","type":"address","indexed":true,"internalType":"address"},{"name":"valueOrId","type":"uint256","indexed":true,"internalType":"uint256"}],"anonymous":false},{"type":"error","name":"AirdropAlreadyClaimed","inputs":[]},{"type":"error","name":"AirdropIsClosed","inputs":[]},{"type":"error","name":"AlreadyExists","inputs":[]},{"type":"error","name":"DecimalsTooLow","inputs":[]},{"type":"error","name":"InsufficientAllowance","inputs":[]},{"type":"error","name":"InsufficientBalance","inputs":[]},{"type":"error","name":"InvalidId","inputs":[]},{"type":"error","name":"InvalidRecipient","inputs":[]},{"type":"error","name":"InvalidSender","inputs":[]},{"type":"error","name":"MaxERC20SupplyReached","inputs":[]},{"type":"error","name":"MaxERC721SupplyReached","inputs":[]},{"type":"error","name":"NotEligibleForAirdrop","inputs":[]},{"type":"error","name":"NotFound","inputs":[]},{"type":"error","name":"NotWhitelisted","inputs":[]},{"type":"error","name":"OwnableInvalidOwner","inputs":[{"name":"owner","type":"address","internalType":"address"}]},{"type":"error","name":"OwnableUnauthorizedAccount","inputs":[{"name":"account","type":"address","internalType":"address"}]},{"type":"error","name":"QueueEmpty","inputs":[]},{"type":"error","name":"QueueFull","inputs":[]},{"type":"error","name":"Unauthorized","inputs":[]},{"type":"error","name":"UnsafeRecipient","inputs":[]}],"bytecode":{"object":"0x6101006040523480156200001257600080fd5b5060405162002d7838038062002d788339810160408190526200003591620005fc565b85858585856001600160a01b0381166200006957604051631e4fbdf760e01b81526000600482015260240160405180910390fd5b620000748162000131565b5060036200008385826200073e565b5060046200009284826200073e565b5060128260ff161015620000b9576040516398790fd560e01b815260040160405180910390fd5b60ff82166080819052620000cf90600a6200091f565b60a081905260e0829052620000e5908262000937565b60c0525050506001600160a01b0382166000908152600e60205260409020805460ff1916600117905550620001258160c05160006200018160201b60201c565b505050505050620009bc565b600080546001600160a01b038381166001600160a01b0319831681178455604051919092169283917f8be0079c531659141344cd1fd0a4f28419497f9722a3daafe3b4186f6b6457e09190a35050565b6001600160a01b0383161580620001a057506001600160a01b03831630145b15620001bf57604051634e46966960e11b815260040160405180910390fd5b60c05182600554620001d2919062000951565b1115620001f25760405163014d590160e11b815260040160405180910390fd5b6001600160a01b0383166000818152600760205260408082208054860190556005805486019055518492919060008051602062002d58833981519152908290a46040518281526001600160a01b038416906000907fe59fdd36d0d223c0c7d996db7ad796880f45e1936cb0bb7ac102e7082e0314879060200160405180910390a38015620002b157600060a051836200028c919062000967565b905060005b81811015620002ae57620002a585620002b6565b60010162000291565b50505b505050565b6001600160a01b0381161580620002d557506001600160a01b03811630145b15620002f457604051634e46966960e11b815260040160405180910390fd5b600062000315600154600160801b81046001600160801b0390811691161490565b6200032e57620003266001620004a6565b90506200037d565b5060068054908190600062000343836200098a565b919050555060a05160c0516200035a919062000967565b60065411156200037d576040516377a4ae0960e01b815260040160405180910390fd5b6000818152600b60205260409020546001600160a01b03168015801590620003ae57506001600160a01b0381163014155b15620003cd5760405163119b4fd360e11b815260040160405180910390fd5b6000828152600b6020908152604080832080546001600160a01b0319166001600160a01b038816908117909155808452600c83529083208054600181810183558286529385200186905592529054620004279190620009a6565b6000838152600d602052604080822092909255905183916001600160a01b03808716929085169160008051602062002d5883398151915291a481836001600160a01b0316826001600160a01b03167fe5f815dc84b8cecdfd4beedfc3f91ab5be7af100eca4e8fb11552b867995394f60405160405180910390a4505050565b80546000906001600160801b03600160801b8204811691168103620004de576040516375e52f4f60e01b815260040160405180910390fd5b600019016001600160801b039081166000818152600185016020526040812080549190558454909216600160801b909102179092555090565b634e487b7160e01b600052604160045260246000fd5b600082601f8301126200053f57600080fd5b81516001600160401b03808211156200055c576200055c62000517565b604051601f8301601f19908116603f0116810190828211818310171562000587576200058762000517565b8160405283815260209250866020858801011115620005a557600080fd5b600091505b83821015620005c95785820183015181830184015290820190620005aa565b6000602085830101528094505050505092915050565b80516001600160a01b0381168114620005f757600080fd5b919050565b60008060008060008060c087890312156200061657600080fd5b86516001600160401b03808211156200062e57600080fd5b6200063c8a838b016200052d565b975060208901519150808211156200065357600080fd5b506200066289828a016200052d565b955050604087015160ff811681146200067a57600080fd5b606088015190945092506200069260808801620005df565b9150620006a260a08801620005df565b90509295509295509295565b600181811c90821680620006c357607f821691505b602082108103620006e457634e487b7160e01b600052602260045260246000fd5b50919050565b601f821115620002b1576000816000526020600020601f850160051c81016020861015620007155750805b601f850160051c820191505b81811015620007365782815560010162000721565b505050505050565b81516001600160401b038111156200075a576200075a62000517565b62000772816200076b8454620006ae565b84620006ea565b602080601f831160018114620007aa5760008415620007915750858301515b600019600386901b1c1916600185901b17855562000736565b600085815260208120601f198616915b82811015620007db57888601518255948401946001909101908401620007ba565b5085821015620007fa5787850151600019600388901b60f8161c191681555b5050505050600190811b01905550565b634e487b7160e01b600052601160045260246000fd5b600181815b80851115620008615781600019048211156200084557620008456200080a565b808516156200085357918102915b93841c939080029062000825565b509250929050565b6000826200087a5750600162000919565b81620008895750600062000919565b8160018114620008a25760028114620008ad57620008cd565b600191505062000919565b60ff841115620008c157620008c16200080a565b50506001821b62000919565b5060208310610133831016604e8410600b8410161715620008f2575081810a62000919565b620008fe838362000820565b80600019048211156200091557620009156200080a565b0290505b92915050565b60006200093060ff84168362000869565b9392505050565b80820281158282048414176200091957620009196200080a565b808201808211156200091957620009196200080a565b6000826200098557634e487b7160e01b600052601260045260246000fd5b500490565b6000600182016200099f576200099f6200080a565b5060010190565b818103818111156200091957620009196200080a565b60805160a05160c05160e0516122f962000a5f600039600061040f01526000818161034d015281816115a9015261180801526000818161043e0152818161091001528181611185015281816111c90152818161125d01528181611287015281816112db0152818161138b015281816113b7015281816113de015281816114250152818161144c0152818161168201526117e7015260006102ee01526122f96000f3fe608060405234801561001057600080fd5b50600436106102115760003560e01c80638b2d8dec11610125578063b3f9ea34116100ad578063dd62ed3e1161007c578063dd62ed3e14610509578063e985e9c514610534578063f2fde38b14610562578063f4cdda3614610575578063fb4bcd4f1461059857600080fd5b8063b3f9ea34146104b2578063b88d4fde146104db578063c87b56dd146104ee578063dc1a92731461050157600080fd5b8063976a8435116100f4578063976a8435146104395780639b19251a14610460578063a22cb46514610483578063a5ce30d214610496578063a9059cbb1461049f57600080fd5b80638b2d8dec146103e65780638da5cb5b146103f9578063922c36c31461040a57806395d89b411461043157600080fd5b806342842e0e116101a85780636352211e116101775780636352211e1461038b57806370a082311461039e578063715018a6146103be578063726d20fe146103c657806383443c52146103d957600080fd5b806342842e0e146103355780634b63babb146103485780634f02c4201461036f57806353d6fd591461037857600080fd5b806318160ddd116101e457806318160ddd146102cb57806323b872dd146102d4578063313ce567146102e957806335054ad71461032257600080fd5b806302519da31461021657806306fdde0314610252578063081812fc14610267578063095ea7b3146102a8575b600080fd5b61023f610224366004611dac565b6001600160a01b031660009081526007602052604090205490565b6040519081526020015b60405180910390f35b61025a6105ab565b6040516102499190611deb565b610290610275366004611e1e565b6009602052600090815260409020546001600160a01b031681565b6040516001600160a01b039091168152602001610249565b6102bb6102b6366004611e37565b610639565b6040519015158152602001610249565b61023f60055481565b6102e76102e2366004611e61565b610817565b005b6103107f000000000000000000000000000000000000000000000000000000000000000081565b60405160ff9091168152602001610249565b6102e7610330366004611e61565b6109d8565b6102e7610343366004611e61565b610b99565b61023f7f000000000000000000000000000000000000000000000000000000000000000081565b61023f60065481565b6102e7610386366004611e9d565b610c82565b610290610399366004611e1e565b610cb6565b61023f6103ac366004611dac565b60076020526000908152604090205481565b6102e7610cf1565b6102bb6103d4366004611f8d565b610d05565b600f546102bb9060ff1681565b6102e76103f4366004611fd4565b610d84565b6000546001600160a01b0316610290565b61023f7f000000000000000000000000000000000000000000000000000000000000000081565b61025a610dca565b61023f7f000000000000000000000000000000000000000000000000000000000000000081565b6102bb61046e366004611dac565b600e6020526000908152604090205460ff1681565b6102e7610491366004611e9d565b610dd7565b61023f60105481565b6102bb6104ad366004611e37565b610e43565b61023f6104c0366004611dac565b6001600160a01b03166000908152600c602052604090205490565b6102e76104e9366004612019565b610e50565b61025a6104fc366004611e1e565b610f1a565b6102e7610f4b565b61023f6105173660046120b4565b600860209081526000928352604080842090915290825290205481565b6102bb6105423660046120b4565b600a60209081526000928352604080842090915290825290205460ff1681565b6102e7610570366004611dac565b610f6a565b6102bb610583366004611dac565b60116020526000908152604090205460ff1681565b6102e76105a6366004611e1e565b610fad565b600380546105b8906120e7565b80601f01602080910402602001604051908101604052809291908181526020018280546105e4906120e7565b80156106315780601f1061060657610100808354040283529160200191610631565b820191906000526020600020905b81548152906001019060200180831161061457829003601f168201915b505050505081565b6000600654821115801561064d5750600082115b15610768576000828152600b602052604090205482906001600160a01b03163381148015906106a057506001600160a01b0381166000908152600a6020908152604080832033845290915290205460ff16155b156106bd576040516282b42960e81b815260040160405180910390fd5b60008281526009602090815260409182902080546001600160a01b0319166001600160a01b038981169182179092559251858152908416917f8c5be1e5ebec7d5bd14f71427d1e84f3dd0314c0f7b2291e5b200ac8c7c3b925910160405180910390a381856001600160a01b0316826001600160a01b03167f797365dabb18fa726ccbccbe18c6f24c34e3b0653f2e99ea873bd7b84763dde660405160405180910390a4505061080d565b3360008181526008602090815260408083206001600160a01b03881680855290835292819020869055518581528593917f8c5be1e5ebec7d5bd14f71427d1e84f3dd0314c0f7b2291e5b200ac8c7c3b925910160405180910390a3604080513381526001600160a01b038616602082015280820183905290517f1f01303a1ce9329d9963e1937c201e23c5543a9e3536e9edead087aec7dc6d839181900360600190a1505b5060015b92915050565b6006548111610945576000818152600b602052604090205481906001600160a01b0385811691161461085c57604051636edaef2f60e11b815260040160405180910390fd5b6001600160a01b03831661088357604051634e46966960e11b815260040160405180910390fd5b336001600160a01b038516148015906108c057506001600160a01b0384166000908152600a6020908152604080832033845290915290205460ff16155b80156108ec57506000818152600960205260409020546001600160a01b0316336001600160a01b031614155b15610909576040516282b42960e81b815260040160405180910390fd5b61093484847f0000000000000000000000000000000000000000000000000000000000000000610fbe565b61093f8484836109d8565b50505050565b6001600160a01b0383166000908152600860209081526040808320338452909152902054819060001981146109c45781811015610995576040516313be252b60e01b815260040160405180910390fd5b61099f8282612137565b6001600160a01b03861660009081526008602090815260408083203384529091529020555b6109cf8585846110e8565b5050505b505050565b6000818152600b6020908152604080832080546001600160a01b038088166001600160a01b031992831617909255600984528285208054909116905586168352600c90915281208054610a2d90600190612137565b81548110610a3d57610a3d61214a565b60009182526020808320909101546001600160a01b0387168352600c82526040808420868552600d90935290922054815492935083928110610a8157610a8161214a565b60009182526020808320909101929092556001600160a01b0386168152600c90915260409020805480610ab657610ab6612160565b600082815260208082208301600019908101839055909201909255838252600d8152604080832054848452818420556001600160a01b038616808452600c83529083208054600181810183558286529385200186905592529054610b1a9190612137565b6000838152600d602052604080822092909255905183916001600160a01b0380871692908816916000805160206122a483398151915291a481836001600160a01b0316856001600160a01b03167fe5f815dc84b8cecdfd4beedfc3f91ab5be7af100eca4e8fb11552b867995394f60405160405180910390a450505050565b610ba4838383610817565b6001600160a01b0382163b15801590610c645750630a85bd0160e11b6001600160a01b03831663150b7a02336040516001600160e01b031960e084901b1681526001600160a01b039182166004820152908716602482015260448101859052608060648201526000608482015260a4016020604051808303816000875af1158015610c33573d6000803e3d6000fd5b505050506040513d601f19601f82011682018060405250810190610c579190612176565b6001600160e01b03191614155b156109d357604051633da6393160e01b815260040160405180910390fd5b610c8a61149d565b6001600160a01b0382166000908152600e60205260409020805460ff19168215151790555050565b5050565b6000818152600b60205260409020546001600160a01b031680610cec5760405163c5723b5160e01b815260040160405180910390fd5b919050565b610cf961149d565b610d0360006114ca565b565b604080516001600160a01b0384166020820152908101829052600090819060600160408051601f1981840301815282825280516020918201209083015201604051602081830303815290604052805190602001209050610d68856010548361151a565b15610d77576001915050610d7d565b60009150505b9392505050565b6010541580610d965750600f5460ff16155b15610db457604051631523f31960e11b815260040160405180910390fd5b610dbe8282611530565b610cb23382600161156b565b600480546105b8906120e7565b336000818152600a602090815260408083206001600160a01b03871680855290835292819020805460ff191686151590811790915590519081529192917f17307eab39ab6107e8899845ad3d59bd9653f200f220920489ca2b5937696c31910160405180910390a35050565b6000610d7d3384846110e8565b610e5b858585610817565b6001600160a01b0384163b15801590610ef55750604051630a85bd0160e11b808252906001600160a01b0386169063150b7a0290610ea59033908a908990899089906004016121a0565b6020604051808303816000875af1158015610ec4573d6000803e3d6000fd5b505050506040513d601f19601f82011682018060405250810190610ee89190612176565b6001600160e01b03191614155b15610f1357604051633da6393160e01b815260040160405180910390fd5b5050505050565b6060610f25826116c5565b604051602001610f3591906121f4565b6040516020818303038152906040529050919050565b610f5361149d565b610d03600f805460ff19811660ff90911615179055565b610f7261149d565b6001600160a01b038116610fa157604051631e4fbdf760e01b8152600060048201526024015b60405180910390fd5b610faa816114ca565b50565b610fb561149d565b610faa81601055565b6001600160a01b0383161580610fdb57506001600160a01b038216155b15610ff957604051634e46966960e11b815260040160405180910390fd5b6001600160a01b03831660009081526007602052604090205481111561103257604051631e9acf1760e31b815260040160405180910390fd5b6001600160a01b0383166000908152600760205260408120805483929061105a908490612137565b90915550506001600160a01b038083166000818152600760205260408082208054860190555184938716916000805160206122a483398151915291a4816001600160a01b0316836001600160a01b03167fe59fdd36d0d223c0c7d996db7ad796880f45e1936cb0bb7ac102e7082e031487836040516110db91815260200190565b60405180910390a3505050565b6001600160a01b03808416600090815260076020526040808220549285168252812054909190611119868686610fbe565b6001600160a01b0386166000908152600e602052604090205460ff16801561115957506001600160a01b0385166000908152600e602052604090205460ff165b611491576001600160a01b0386166000908152600e602052604090205460ff161561121d5760006111aa7f00000000000000000000000000000000000000000000000000000000000000008361224f565b6001600160a01b0387166000908152600760205260409020546111ee907f00000000000000000000000000000000000000000000000000000000000000009061224f565b6111f89190612137565b905060005b818110156112165761120e87611758565b6001016111fd565b5050611491565b6001600160a01b0385166000908152600e602052604090205460ff16156112d4576001600160a01b038616600090815260076020526040812054611282907f00000000000000000000000000000000000000000000000000000000000000009061224f565b6112ac7f00000000000000000000000000000000000000000000000000000000000000008561224f565b6112b69190612137565b905060005b81811015611216576112cc88611972565b6001016112bb565b60006113007f00000000000000000000000000000000000000000000000000000000000000008661224f565b905060005b81811015611383576001600160a01b0388166000908152600c602052604081205461133290600190612137565b6001600160a01b038a166000908152600c6020526040812080549293509091839081106113615761136161214a565b906000526020600020015490506113798a8a836109d8565b5050600101611305565b5060006113b07f000000000000000000000000000000000000000000000000000000000000000087612263565b90506113dc7f00000000000000000000000000000000000000000000000000000000000000008561224f565b7f00000000000000000000000000000000000000000000000000000000000000006114078387612137565b611411919061224f565b10156114205761142088611972565b61144a7f00000000000000000000000000000000000000000000000000000000000000008461224f565b7f00000000000000000000000000000000000000000000000000000000000000006114758386612277565b61147f919061224f565b111561148e5761148e87611758565b50505b50600195945050505050565b6000546001600160a01b03163314610d035760405163118cdaa760e01b8152336004820152602401610f98565b600080546001600160a01b038381166001600160a01b0319831681178455604051919092169283917f8be0079c531659141344cd1fd0a4f28419497f9722a3daafe3b4186f6b6457e09190a35050565b6000826115278584611ae0565b14949350505050565b60105415806115425750600f5460ff16155b1561156057604051631523f31960e11b815260040160405180910390fd5b610cb2823383611b23565b6001600160a01b038316158061158957506001600160a01b03831630145b156115a757604051634e46966960e11b815260040160405180910390fd5b7f0000000000000000000000000000000000000000000000000000000000000000826005546115d69190612277565b11156115f55760405163014d590160e11b815260040160405180910390fd5b6001600160a01b038316600081815260076020526040808220805486019055600580548601905551849291906000805160206122a4833981519152908290a46040518281526001600160a01b038416906000907fe59fdd36d0d223c0c7d996db7ad796880f45e1936cb0bb7ac102e7082e0314879060200160405180910390a380156109d35760006116a77f00000000000000000000000000000000000000000000000000000000000000008461224f565b905060005b81811015610f13576116bd85611758565b6001016116ac565b606060006116d283611bab565b600101905060008167ffffffffffffffff8111156116f2576116f2611ed9565b6040519080825280601f01601f19166020018201604052801561171c576020820181803683370190505b5090508181016020015b600019016f181899199a1a9b1b9c1cb0b131b232b360811b600a86061a8153600a850494508461172657509392505050565b6001600160a01b038116158061177657506001600160a01b03811630145b1561179457604051634e46966960e11b815260040160405180910390fd5b60006117b4600154600160801b81046001600160801b0390811691161490565b6117c9576117c26001611c83565b905061184e565b506006805490819060006117dc8361228a565b9091555061182c90507f00000000000000000000000000000000000000000000000000000000000000007f000000000000000000000000000000000000000000000000000000000000000061224f565b600654111561184e576040516377a4ae0960e01b815260040160405180910390fd5b6000818152600b60205260409020546001600160a01b0316801580159061187e57506001600160a01b0381163014155b1561189c5760405163119b4fd360e11b815260040160405180910390fd5b6000828152600b6020908152604080832080546001600160a01b0319166001600160a01b038816908117909155808452600c835290832080546001818101835582865293852001869055925290546118f49190612137565b6000838152600d602052604080822092909255905183916001600160a01b0380871692908516916000805160206122a483398151915291a481836001600160a01b0316826001600160a01b03167fe5f815dc84b8cecdfd4beedfc3f91ab5be7af100eca4e8fb11552b867995394f60405160405180910390a4505050565b6001600160a01b038116158061199057506001600160a01b03811630145b156119ae57604051636edaef2f60e11b815260040160405180910390fd5b6001600160a01b0381166000908152600c6020526040812080546119d490600190612137565b815481106119e4576119e461214a565b90600052602060002001549050600c6000836001600160a01b03166001600160a01b03168152602001908152602001600020805480611a2557611a25612160565b600082815260208082208301600019908101839055909201909255828252600b90526040902080546001600160a01b03191630179055611a66600182611cf3565b60008181526009602052604080822080546001600160a01b031916905551829130916001600160a01b038616916000805160206122a483398151915291a4604051819030906001600160a01b038516907fe5f815dc84b8cecdfd4beedfc3f91ab5be7af100eca4e8fb11552b867995394f90600090a45050565b600081815b8451811015611b1b57611b1182868381518110611b0457611b0461214a565b6020026020010151611d66565b9150600101611ae5565b509392505050565b611b2e838383610d05565b611b4b57604051633ba2c43760e11b815260040160405180910390fd5b6001600160a01b03821660009081526011602052604090205460ff1615611b855760405163e4ca4c0b60e01b815260040160405180910390fd5b506001600160a01b03166000908152601160205260409020805460ff1916600117905550565b60008072184f03e93ff9f4daa797ed6e38ed64bf6a1f0160401b8310611bea5772184f03e93ff9f4daa797ed6e38ed64bf6a1f0160401b830492506040015b6d04ee2d6d415b85acef81000000008310611c16576d04ee2d6d415b85acef8100000000830492506020015b662386f26fc100008310611c3457662386f26fc10000830492506010015b6305f5e1008310611c4c576305f5e100830492506008015b6127108310611c6057612710830492506004015b60648310611c72576064830492506002015b600a83106108115760010192915050565b80546000906001600160801b03600160801b8204811691168103611cba576040516375e52f4f60e01b815260040160405180910390fd5b600019016001600160801b039081166000818152600185016020526040812080549190558454909216600160801b909102179092555090565b81546001600160801b038082166000190191600160801b9004811690821603611d2f57604051638acb5f2760e01b815260040160405180910390fd5b6001600160801b0316600081815260018401602052604090209190915581546fffffffffffffffffffffffffffffffff1916179055565b6000818310611d82576000828152602084905260409020610d7d565b6000838152602083905260409020610d7d565b80356001600160a01b0381168114610cec57600080fd5b600060208284031215611dbe57600080fd5b610d7d82611d95565b60005b83811015611de2578181015183820152602001611dca565b50506000910152565b6020815260008251806020840152611e0a816040850160208701611dc7565b601f01601f19169190910160400192915050565b600060208284031215611e3057600080fd5b5035919050565b60008060408385031215611e4a57600080fd5b611e5383611d95565b946020939093013593505050565b600080600060608486031215611e7657600080fd5b611e7f84611d95565b9250611e8d60208501611d95565b9150604084013590509250925092565b60008060408385031215611eb057600080fd5b611eb983611d95565b915060208301358015158114611ece57600080fd5b809150509250929050565b634e487b7160e01b600052604160045260246000fd5b600082601f830112611f0057600080fd5b8135602067ffffffffffffffff80831115611f1d57611f1d611ed9565b8260051b604051601f19603f83011681018181108482111715611f4257611f42611ed9565b6040529384526020818701810194908101925087851115611f6257600080fd5b6020870191505b84821015611f8257813583529183019190830190611f69565b979650505050505050565b600080600060608486031215611fa257600080fd5b833567ffffffffffffffff811115611fb957600080fd5b611fc586828701611eef565b935050611e8d60208501611d95565b60008060408385031215611fe757600080fd5b823567ffffffffffffffff811115611ffe57600080fd5b61200a85828601611eef565b95602094909401359450505050565b60008060008060006080868803121561203157600080fd5b61203a86611d95565b945061204860208701611d95565b935060408601359250606086013567ffffffffffffffff8082111561206c57600080fd5b818801915088601f83011261208057600080fd5b81358181111561208f57600080fd5b8960208285010111156120a157600080fd5b9699959850939650602001949392505050565b600080604083850312156120c757600080fd5b6120d083611d95565b91506120de60208401611d95565b90509250929050565b600181811c908216806120fb57607f821691505b60208210810361211b57634e487b7160e01b600052602260045260246000fd5b50919050565b634e487b7160e01b600052601160045260246000fd5b8181038181111561081157610811612121565b634e487b7160e01b600052603260045260246000fd5b634e487b7160e01b600052603160045260246000fd5b60006020828403121561218857600080fd5b81516001600160e01b031981168114610d7d57600080fd5b6001600160a01b038681168252851660208201526040810184905260806060820181905281018290526000828460a0840137600060a0848401015260a0601f19601f85011683010190509695505050505050565b7f68747470733a2f2f6578616d706c652e636f6d2f746f6b656e2f00000000000081526000825161222c81601a850160208701611dc7565b91909101601a0192915050565b634e487b7160e01b600052601260045260246000fd5b60008261225e5761225e612239565b500490565b60008261227257612272612239565b500690565b8082018082111561081157610811612121565b60006001820161229c5761229c612121565b506001019056feddf252ad1be2c89b69c2b068fc378daa952ba7f163c4a11628f55a4df523b3efa2646970667358221220703db57b13faf4e6e85fd22cd2d2f4c73fc680ddd6458fb45c549062e02da4eb64736f6c63430008170033ddf252ad1be2c89b69c2b068fc378daa952ba7f163c4a11628f55a4df523b3ef","linkReferences":{}},"methodIdentifiers":{"_transferERC721(address,address,uint256)":"35054ad7","airdropIsOpen()":"83443c52","airdropMerkleRoot()":"a5ce30d2","airdropMint(bytes32[],uint256)":"8b2d8dec","allowance(address,address)":"dd62ed3e","approve(address,uint256)":"095ea7b3","balanceOf(address)":"70a08231","decimals()":"313ce567","erc20BalanceOf(address)":"02519da3","erc721BalanceOf(address)":"b3f9ea34","getApproved(uint256)":"081812fc","hasClaimedAirdrop(address)":"f4cdda36","isApprovedForAll(address,address)":"e985e9c5","maxTotalSupplyERC20()":"4b63babb","maxTotalSupplyERC721()":"922c36c3","minted()":"4f02c420","name()":"06fdde03","owner()":"8da5cb5b","ownerOf(uint256)":"6352211e","renounceOwnership()":"715018a6","safeTransferFrom(address,address,uint256)":"42842e0e","safeTransferFrom(address,address,uint256,bytes)":"b88d4fde","setAirdropMerkleRoot(bytes32)":"fb4bcd4f","setApprovalForAll(address,bool)":"a22cb465","setWhitelist(address,bool)":"53d6fd59","symbol()":"95d89b41","toggleAirdropIsOpen()":"dc1a9273","tokenURI(uint256)":"c87b56dd","totalSupply()":"18160ddd","transfer(address,uint256)":"a9059cbb","transferFrom(address,address,uint256)":"23b872dd","transferOwnership(address)":"f2fde38b","units()":"976a8435","verifyProof(bytes32[],address,uint256)":"726d20fe","whitelist(address)":"9b19251a"},"id":33}